{
  "transactions": [
    {
      "hash": "0x0086c7aab6d7850f561a68cb2044a631e524768123bd0d3c48f74730c3a05ca5",
      "transactionType": "CALL",
      "contractName": null,
      "contractAddress": "0x036cbd53842c5426634e7929541ec2318f3dcf7e",
      "function": "approve(address,uint256)",
      "arguments": [
        "0x1Ba3f752C88D15a4Ce5ea4757D163759Eb48BC7f",
        "1000000"
      ],
      "transaction": {
        "from": "0xbe9078b15baa4a7e3a0848a2a4adef6014b2dbff",
        "to": "0x036cbd53842c5426634e7929541ec2318f3dcf7e",
        "gas": "0x12b1b",
        "value": "0x0",
        "input": "0x095ea7b30000000000000000000000001ba3f752c88d15a4ce5ea4757d163759eb48bc7f00000000000000000000000000000000000000000000000000000000000f4240",
        "nonce": "0x4",
        "chainId": "0x14a34"
      },
      "additionalContracts": [],
      "isFixedGasLimit": false
    },
    {
      "hash": "0x5218bf08a69e2473ca191cdee9eaed8c38754037cf8ff2c22a25da488dad39b8",
      "transactionType": "CALL",
      "contractName": null,
      "contractAddress": "0x1ba3f752c88d15a4ce5ea4757d163759eb48bc7f",
      "function": "deposit(bytes16,uint256,uint256,uint256,bytes)",
      "arguments": [
        "0x550e8400e29b41d4a716446655440000",
        "1000000",
        "604800",
        "29894161",
        "0x307830"
      ],
      "transaction": {
        "from": "0xbe9078b15baa4a7e3a0848a2a4adef6014b2dbff",
        "to": "0x1ba3f752c88d15a4ce5ea4757d163759eb48bc7f",
        "gas": "0x93009",
        "value": "0x0",
        "input": "0x00b45a6b550e8400e29b41d4a7164466554400000000000000000000000000000000000000000000000000000000000000000000000000000000000000000000000f42400000000000000000000000000000000000000000000000000000000000093a800000000000000000000000000000000000000000000000000000000001c8261100000000000000000000000000000000000000000000000000000000000000a000000000000000000000000000000000000000000000000000000000000000033078300000000000000000000000000000000000000000000000000000000000",
        "nonce": "0x5",
        "chainId": "0x14a34"
      },
      "additionalContracts": [],
      "isFixedGasLimit": false
    }
  ],
  "receipts": [
    {
      "status": "0x1",
      "cumulativeGasUsed": "0x361a2",
      "logs": [
        {
          "address": "0x036cbd53842c5426634e7929541ec2318f3dcf7e",
          "topics": [
            "0x8c5be1e5ebec7d5bd14f71427d1e84f3dd0314c0f7b2291e5b200ac8c7c3b925",
            "0x000000000000000000000000be9078b15baa4a7e3a0848a2a4adef6014b2dbff",
            "0x0000000000000000000000001ba3f752c88d15a4ce5ea4757d163759eb48bc7f"
          ],
          "data": "0x00000000000000000000000000000000000000000000000000000000000f4240",
          "blockHash": "0x28b5fb730e129178a9aec4827a85a64a2375df2636698b58d991b5fd84f7b691",
          "blockNumber": "0x1c82233",
          "blockTimestamp": "0x68a3a346",
          "transactionHash": "0x0086c7aab6d7850f561a68cb2044a631e524768123bd0d3c48f74730c3a05ca5",
          "transactionIndex": "0x4",
          "logIndex": "0x4",
          "removed": false
        }
      ],
      "logsBloom": "0x00000000040000000000000401000000000000000000000000000000000000000000000000004000000000000000000000000000000000000000000000200000000000000000000000000000000000000000000040001000000000000000000800000000000000000000000000000000000000000000000000000000000000004000000000000000000000000000000000000000000000000000000000000000020000000000000000000000000000000000000000000000000000000000000000000000000000000000000000000000000000000000000000000000000000000010000000000000000000000020000000000000000000000000000000000000",
      "type": "0x2",
      "transactionHash": "0x0086c7aab6d7850f561a68cb2044a631e524768123bd0d3c48f74730c3a05ca5",
      "transactionIndex": "0x4",
      "blockHash": "0x28b5fb730e129178a9aec4827a85a64a2375df2636698b58d991b5fd84f7b691",
      "blockNumber": "0x1c82233",
      "gasUsed": "0xd88d",
      "effectiveGasPrice": "0xf4285",
      "from": "0xbe9078b15baa4a7e3a0848a2a4adef6014b2dbff",
      "to": "0x036cbd53842c5426634e7929541ec2318f3dcf7e",
      "contractAddress": null,
      "l1BaseFeeScalar": "0x44d",
      "l1BlobBaseFee": "0x10",
      "l1BlobBaseFeeScalar": "0xa118b",
      "l1Fee": "0x2d68f8",
      "l1GasPrice": "0x19c4c2",
      "l1GasUsed": "0x640"
    },
    {
      "status": "0x1",
      "cumulativeGasUsed": "0xa0877",
      "logs": [
        {
          "address": "0x036cbd53842c5426634e7929541ec2318f3dcf7e",
          "topics": [
            "0xddf252ad1be2c89b69c2b068fc378daa952ba7f163c4a11628f55a4df523b3ef",
            "0x000000000000000000000000be9078b15baa4a7e3a0848a2a4adef6014b2dbff",
            "0x0000000000000000000000001ba3f752c88d15a4ce5ea4757d163759eb48bc7f"
          ],
          "data": "0x00000000000000000000000000000000000000000000000000000000000f4240",
          "blockHash": "0x28b5fb730e129178a9aec4827a85a64a2375df2636698b58d991b5fd84f7b691",
          "blockNumber": "0x1c82233",
          "blockTimestamp": "0x68a3a346",
          "transactionHash": "0x5218bf08a69e2473ca191cdee9eaed8c38754037cf8ff2c22a25da488dad39b8",
          "transactionIndex": "0x5",
          "logIndex": "0x5",
          "removed": false
        },
        {
          "address": "0x07ea79f68b2b3df564d0a34f8e19d9b1e339814b",
          "topics": [
            "0x804c9b842b2748a22bb64b345453a3de7ca54a6ca45ce00d415894979e22897a",
            "0x000000000000000000000000036cbd53842c5426634e7929541ec2318f3dcf7e"
          ],
          "data": "0x00000000000000000000000000000000000000000009e5c5e6e326dc033d4dc30000000000000000000000000000000000000000005287615bc6770b3ad9574a00000000000000000000000000000000000000000018a04dc13a6e1134d9574a0000000000000000000000000000000000000000034a21dc4f910c358f13d4c10000000000000000000000000000000000000000035ba81b3c62a785018b6bd4",
          "blockHash": "0x28b5fb730e129178a9aec4827a85a64a2375df2636698b58d991b5fd84f7b691",
          "blockNumber": "0x1c82233",
          "blockTimestamp": "0x68a3a346",
          "transactionHash": "0x5218bf08a69e2473ca191cdee9eaed8c38754037cf8ff2c22a25da488dad39b8",
          "transactionIndex": "0x5",
          "logIndex": "0x6",
          "removed": false
        },
        {
          "address": "0x036cbd53842c5426634e7929541ec2318f3dcf7e",
          "topics": [
            "0xddf252ad1be2c89b69c2b068fc378daa952ba7f163c4a11628f55a4df523b3ef",
            "0x0000000000000000000000001ba3f752c88d15a4ce5ea4757d163759eb48bc7f",
            "0x000000000000000000000000f53b60f4006cab2b3c4688ce41fd5362427a2a66"
          ],
          "data": "0x00000000000000000000000000000000000000000000000000000000000f4240",
          "blockHash": "0x28b5fb730e129178a9aec4827a85a64a2375df2636698b58d991b5fd84f7b691",
          "blockNumber": "0x1c82233",
          "blockTimestamp": "0x68a3a346",
          "transactionHash": "0x5218bf08a69e2473ca191cdee9eaed8c38754037cf8ff2c22a25da488dad39b8",
          "transactionIndex": "0x5",
          "logIndex": "0x7",
          "removed": false
        },
        {
          "address": "0xf53b60f4006cab2b3c4688ce41fd5362427a2a66",
          "topics": [
            "0xddf252ad1be2c89b69c2b068fc378daa952ba7f163c4a11628f55a4df523b3ef",
            "0x0000000000000000000000000000000000000000000000000000000000000000",
            "0x0000000000000000000000001ba3f752c88d15a4ce5ea4757d163759eb48bc7f"
          ],
          "data": "0x00000000000000000000000000000000000000000000000000000000000f4242",
          "blockHash": "0x28b5fb730e129178a9aec4827a85a64a2375df2636698b58d991b5fd84f7b691",
          "blockNumber": "0x1c82233",
          "blockTimestamp": "0x68a3a346",
          "transactionHash": "0x5218bf08a69e2473ca191cdee9eaed8c38754037cf8ff2c22a25da488dad39b8",
          "transactionIndex": "0x5",
          "logIndex": "0x8",
          "removed": false
        },
        {
          "address": "0xf53b60f4006cab2b3c4688ce41fd5362427a2a66",
          "topics": [
            "0x458f5fa412d0f69b08dd84872b0215675cc67bc1d5b6fd93300a1c3878b86196",
            "0x0000000000000000000000001ba3f752c88d15a4ce5ea4757d163759eb48bc7f",
            "0x0000000000000000000000001ba3f752c88d15a4ce5ea4757d163759eb48bc7f"
          ],
          "data": "0x00000000000000000000000000000000000000000000000000000000000f424200000000000000000000000000000000000000000000000000000000000000020000000000000000000000000000000000000000034a21dc4f910c358f13d4c1",
          "blockHash": "0x28b5fb730e129178a9aec4827a85a64a2375df2636698b58d991b5fd84f7b691",
          "blockNumber": "0x1c82233",
          "blockTimestamp": "0x68a3a346",
          "transactionHash": "0x5218bf08a69e2473ca191cdee9eaed8c38754037cf8ff2c22a25da488dad39b8",
          "transactionIndex": "0x5",
          "logIndex": "0x9",
          "removed": false
        },
        {
          "address": "0x07ea79f68b2b3df564d0a34f8e19d9b1e339814b",
          "topics": [
            "0x2b627736bca15cd5381dcf80b0bf11fd197d01a037c52b927a881a10fb73ba61",
            "0x000000000000000000000000036cbd53842c5426634e7929541ec2318f3dcf7e",
            "0x0000000000000000000000001ba3f752c88d15a4ce5ea4757d163759eb48bc7f",
            "0x0000000000000000000000000000000000000000000000000000000000000000"
          ],
          "data": "0x0000000000000000000000001ba3f752c88d15a4ce5ea4757d163759eb48bc7f00000000000000000000000000000000000000000000000000000000000f4240",
          "blockHash": "0x28b5fb730e129178a9aec4827a85a64a2375df2636698b58d991b5fd84f7b691",
          "blockNumber": "0x1c82233",
          "blockTimestamp": "0x68a3a346",
          "transactionHash": "0x5218bf08a69e2473ca191cdee9eaed8c38754037cf8ff2c22a25da488dad39b8",
          "transactionIndex": "0x5",
          "logIndex": "0xa",
          "removed": false
        },
        {
          "address": "0x1ba3f752c88d15a4ce5ea4757d163759eb48bc7f",
          "topics": [
            "0xefb7f2ff0161ecc1db35c0db2f502900e05a46b4f111f86d68dbf600404090ec",
            "0x550e8400e29b41d4a71644665544000000000000000000000000000000000000",
            "0x000000000000000000000000be9078b15baa4a7e3a0848a2a4adef6014b2dbff"
          ],
          "data": "0x00000000000000000000000000000000000000000000000000000000000f42400000000000000000000000000000000000000000000000000000000000093a80",
          "blockHash": "0x28b5fb730e129178a9aec4827a85a64a2375df2636698b58d991b5fd84f7b691",
          "blockNumber": "0x1c82233",
          "blockTimestamp": "0x68a3a346",
          "transactionHash": "0x5218bf08a69e2473ca191cdee9eaed8c38754037cf8ff2c22a25da488dad39b8",
          "transactionIndex": "0x5",
          "logIndex": "0xb",
          "removed": false
        }
      ],
      "logsBloom": "0x00800000040000000000000401000000000000080000000100000000000000000000000000004000000000000804000000000000000000000000000000000000000000000000000002000009000000000000000044001000000000840000000800000000020000000200020000000800000000000004000000000010000000004000000040000000000000000000000010000000000000000200802000000000000000000000000000000000000000000000000000000000100000000000090012000002000000000000002040000000000000000000000000000000000020000000040000000000000000000060000040000000000000000000400000000000",
      "type": "0x2",
      "transactionHash": "0x5218bf08a69e2473ca191cdee9eaed8c38754037cf8ff2c22a25da488dad39b8",
      "transactionIndex": "0x5",
      "blockHash": "0x28b5fb730e129178a9aec4827a85a64a2375df2636698b58d991b5fd84f7b691",
      "blockNumber": "0x1c82233",
      "gasUsed": "0x6a6d5",
      "effectiveGasPrice": "0xf4285",
      "from": "0xbe9078b15baa4a7e3a0848a2a4adef6014b2dbff",
      "to": "0x1ba3f752c88d15a4ce5ea4757d163759eb48bc7f",
      "contractAddress": null,
      "l1BaseFeeScalar": "0x44d",
      "l1BlobBaseFee": "0x10",
      "l1BlobBaseFeeScalar": "0xa118b",
      "l1Fee": "0x3046ab",
      "l1GasPrice": "0x19c4c2",
      "l1GasUsed": "0x6a4"
    }
  ],
  "libraries": [],
  "pending": [],
  "returns": {},
  "timestamp": 1755554628585,
  "chain": 84532,
  "commit": "b70c2c3"
}