{
  "transactions": [
    {
      "hash": "0x83bf0dcc5a5a9ffd9ab005ef46b554f005020809ae24c0addd1351fd49284c4d",
      "transactionType": "CALL",
      "contractName": "ProxyAdmin",
      "contractAddress": "0x5b27d529744b9fa94565886d67df6e5737211bd2",
      "function": "upgradeAndCall(address,address,bytes)",
      "arguments": [
        "0xfA95214EA8195e9D256Bb18adF0F56b3dEc66FaE",
        "0xC3FBA6A96841182D06040d9907554aD94B8ecf90",
        "0x"
      ],
      "transaction": {
        "from": "0x5fdf2f46959bd37ba72c06ab523cac3f88291756",
        "to": "0x5b27d529744b9fa94565886d67df6e5737211bd2",
        "gas": "0xd4e3",
        "value": "0x0",
        "input": "0x9623609d000000000000000000000000fa95214ea8195e9d256bb18adf0f56b3dec66fae000000000000000000000000c3fba6a96841182d06040d9907554ad94b8ecf9000000000000000000000000000000000000000000000000000000000000000600000000000000000000000000000000000000000000000000000000000000000",
        "nonce": "0x34",
        "chainId": "0x2105"
      },
      "additionalContracts": [],
      "isFixedGasLimit": false
    }
  ],
  "receipts": [
    {
      "status": "0x1",
      "cumulativeGasUsed": "0x70b4ea",
      "logs": [
        {
          "address": "0xfa95214ea8195e9d256bb18adf0f56b3dec66fae",
          "topics": [
            "0xbc7cd75a20ee27fd9adebab32041f755214dbc6bffa90cc0225b39da2e5c2d3b",
            "0x000000000000000000000000c3fba6a96841182d06040d9907554ad94b8ecf90"
          ],
          "data": "0x",
          "blockHash": "0x9f2e32c609e21a929e6be76d929a98d0fe6d6a7952057c697be346dcb8b13c28",
          "blockNumber": "0x1f0ef97",
          "transactionHash": "0x83bf0dcc5a5a9ffd9ab005ef46b554f005020809ae24c0addd1351fd49284c4d",
          "transactionIndex": "0x26",
          "logIndex": "0x54",
          "removed": false
        }
      ],
      "logsBloom": "0x00000000000000000000000000000000400000000000000000000000000000000000000000000000000000000000000000000000000000000000000000000000000000000000000000000001000002000000000000000000000000000000000000000000000000000000000000000000000000000000000000000000000000000000000000000000000400000000000000008000000000000000000000000000000000000000000000000000000000000008000000000000000000000000000000000020000000000000200000000000400000000000000000000000000000000000000000000000000000000000000000000000000000000000000000000000",
      "type": "0x2",
      "transactionHash": "0x83bf0dcc5a5a9ffd9ab005ef46b554f005020809ae24c0addd1351fd49284c4d",
      "transactionIndex": "0x26",
      "blockHash": "0x9f2e32c609e21a929e6be76d929a98d0fe6d6a7952057c697be346dcb8b13c28",
      "blockNumber": "0x1f0ef97",
      "gasUsed": "0x9191",
      "effectiveGasPrice": "0xaf3df",
      "from": "0x5fdf2f46959bd37ba72c06ab523cac3f88291756",
      "to": "0x5b27d529744b9fa94565886d67df6e5737211bd2",
      "contractAddress": null,
      "l1BaseFeeScalar": "0x8dd",
      "l1BlobBaseFee": "0x1",
      "l1BlobBaseFeeScalar": "0x101c12",
      "l1Fee": "0x16c9f002c",
      "l1GasPrice": "0x5d02603b",
      "l1GasUsed": "0x6bf"
    }
  ],
  "libraries": [],
  "pending": [],
  "returns": {
    "0": {
      "internal_type": "address",
      "value": "0xfA95214EA8195e9D256Bb18adF0F56b3dEc66FaE"
    }
  },
  "timestamp": 1751923729486,
  "chain": 8453,
  "commit": "8521cb3"
}